:020000040800F2
:10000000102200209D010008F9350008FB3500088A
:10001000FF3500080336000807360008000000001E
:100020000000000000000000000000000B36000887
:100030000D360008000000000F36000811360008D9
:10004000B7010008B7010008B7010008B7010008B0
:10005000B7010008B7010008B7010008B7010008A0
:10006000B7010008B7010008B7010008B701000890
:10007000B7010008B7010008B7010008B701000880
:10008000B7010008B7010008B7010008B701000870
:10009000B7010008B7010008B70100081D360008C5
:1000A000B7010008B7010008B7010008B701000850
:1000B000B7010008B7010008B7010008B701000840
:1000C000B7010008B7010008B7010008B701000830
:1000D000B7010008B7010008B7010008B701000820
:1000E000B7010008B7010008B701000800F002F8E6
:1000F00000F045F80AA090E8000C82448344AAF17D
:100100000107DA4501D100F03AF8AFF2090EBAE87A
:100110000F0013F0010F18BFFB1A43F0010318473B
:10012000483B0000683B0000103A24BF78C878C103
:10013000FAD8520724BF30C830C144BF04680C60ED
:10014000704700000023002400250026103A28BF35
:1001500078C1FBD8520728BF30C148BF0B60704739
:10016000642903F03F83782903F07883732903F02F
:10017000A884002070471FB51FBD10B510BD03F047
:10018000F7FC1146FFF7F7FF02F053FF03F015FDF0
:1001900003B4FFF7F2FF03BC02F046FE09488047B4
:1001A00009480047FEE7FEE7FEE7FEE7FEE7FEE759
:1001B000FEE7FEE7FEE7FEE704480549054A064B71
:1001C0007047000031360008ED000008101C0020C8
:1001D00010220020101E0020101E0020704770B555
:1001E0000446624800784FF47A71B1FBF0F0604940
:1001F0000968B1FBF0F5284600F056F908B1012076
:1002000070BD102C07D200222146501E00F0E2F8EB
:100210005848046001E00120F2E70020F0E710B543
:100220005548006840F0100053490860032000F072
:10023000BFF80020FFF7D3FF03F056F9002010BDF0
:10024000704710B54FF0FF304C49C860002008617E
:10025000401EC8600020C860FFF7F2FF002010BDFC
:100260004748006841490978084445490860704793
:100270004348006870473F480068704770B50446BF
:1002800000253A480078A04206D038480470394822
:100290000068FFF7A4FF0546284670BD3348007884
:1002A000704770B50446FFF7E3FF06462546681C15
:1002B00002D02E480078054400BFFFF7D9FF801B0D
:1002C000A842FAD370BD4FF0E020006920F0020090
:1002D0004FF0E021086170474FF0E020006940F0E6
:1002E00002004FF0E0210861704726487047264819
:1002F0000068000C704724480068C0F30B0070478A
:100300002148406840F001001F49486070471E487E
:10031000406820F001001C49486070471A48406856
:1003200040F002001849486070471748406820F0C4
:1003300002001549486070471348406840F00400C7
:100340001149486070471048406820F004000E4989
:10035000486070470D49096801600C49091D09682A
:1003600041600A4908310968816070470400002033
:100370001400002000000020002002400010024075
:100380000800002000020101002004E0E8F7FF1F40
:1003900010B5002807DA0A07140EA34A00F00F036D
:1003A0001B1FD45403E00A07130EA04A135410BDB8
:1003B00000BF00F007029C4B0C3B19684FF6FF038F
:1003C00019409B4B0B4343EA0221974B0C3B1960AE
:1003D00000BF70472DE9F05F80460D4616460027A6
:1003E00000F01BF9074639462A46334601F007005C
:1003F000C0F1070ABAF1040F02D94FF0040A01E074
:10040000C0F1070AD14600F1040ABAF1070F02D27F
:100410004FF0000A01E0A0F1030AD4464FF0010AB0
:100420000AFA09FAAAF1010A0AEA020A0AFA0CFA15
:100430004FF0010B0BFA0CFBABF1010B0BEA030BBA
:100440004AEA0B0421464046FFF7A2FFBDE8F09FB1
:1004500000BF00F01F020121914042094FF0E0234C
:1004600003EB8202C2F8001100BF704700BF00F02A
:100470001F02012191406F4A430942F8231000BF37
:10048000704700BFBFF34F8F67480C38006800F417
:10049000E06067490843001D63490C390860BFF3F9
:1004A0004F8F00BF00BFFEE770B504462546681EAB
:1004B000B0F1807F01D301200FE0681E4FF0E021F2
:1004C00048610F214FF0FF30FFF762FF00204FF02F
:1004D000E021886107200861002070BD10B500F0A0
:1004E0009CF810BD2DE9F04304462046002808DAA8
:1004F0004D4F00F00F0CACF1040C17F80C703F11CD
:1005000002E04A4F3F5C3F113D460E4606F00700B1
:10051000C0F10708B8F1040F02D94FF0040801E058
:10052000C0F10708C44600F10408B8F1070F02D271
:100530004FF0000801E0A0F10308474625FA07F84C
:100540004FF0010909FA0CF9A9F1010908EA0908B3
:10055000C2F800804FF0010808FA07F8A8F1010876
:1005600008EA0508C3F8008000BFBDE8F08300BFBB
:1005700000F01F02012191402E4A8032430942F8C7
:10058000231000BF704710B501460846294A803243
:10059000430952F8232000F01F040123A3401A420C
:1005A00001D0012200E00022104610BD00BF00F083
:1005B0001F0201219140204A430942F8231000BF45
:1005C000704710B5014608461B4A8032430952F86D
:1005D000232000F01F040123A3401A4201D001226E
:1005E00000E00022104610BD042808D14FF0E021A1
:1005F000096941F004014FF0E022116107E04FF07A
:10060000E021096921F004014FF0E02211617047F7
:10061000704710B5FFF7FCFF10BD03480C380068A9
:10062000C0F302207047000018ED00E000E400E095
:100630000000FA0580E100E080E200E001460022CF
:1006400009B901207047F94B0868C01A1423B0FBA0
:10065000F3F080000864F5480838C863022081F888
:1006600021000868026843F6F0708243D1E9010373
:100670001843CB6818430B6918434B6918438B69BF
:100680001843CB691843024308680260002088625F
:10069000C862086348638863012081F82100002054
:1006A00081F8200000BFCDE7014609B9012070475D
:1006B0000868006820F001000A68106000200A68DD
:1006C00010600A6850600A6890600A68D060D74A73
:1006D0000868801A1422B0FBF2F080000864D34846
:1006E0000838C86391F8402001209040CA6B5060E0
:1006F0000020886381F8210000BF81F8200000BF3E
:1007000000BFD4E730B590F840500124AC40C56B31
:100710006C60046863604468102C04D10468A260B3
:100720000468E16003E00468A1600468E26030BD31
:100730002DE9F04104460D4616461F464FF00008CD
:1007400000BF94F82000012802D10220BDE8F0810A
:10075000012084F8200000BF94F82100012817D15F
:10076000022084F821000020A0632068006820F0A7
:100770000100216808603B46324629462046FFF7C3
:10078000C1FF2068006840F001002168086006E0B1
:1007900000BF002084F8200000BF4FF00208404650
:1007A000D4E72DE9F04104460D4616461F464FF0AA
:1007B000000800BF94F82000012802D10220BDE803
:1007C000F081012084F8200000BF94F82100012866
:1007D0002CD1022084F821000020A063206800684A
:1007E00020F00100216808603B4632462946204639
:1007F000FFF788FFE06A30B12068006840F00E0023
:10080000216808600BE02068006820F0040021687F
:1008100008602068006840F00A00216808602068CD
:10082000006840F001002168086006E000BF002079
:1008300084F8200000BF4FF002084046BFE70146A1
:1008400000200A68126822F00E020B681A600A681B
:10085000126822F001020B681A6091F84030012200
:100860009A40CB6B5A60012281F8212000BF002200
:1008700081F8202000BF704770B50446002594F829
:100880002100022803D00420A063012548E020684D
:10089000006820F00E00216808602068006820F0E1
:1008A00001002168086061492068884201D1012067
:1008B00026E05E4914312068884201D110201FE0F3
:1008C0005A4928312068884201D1801518E05749DB
:1008D0003C312068884201D1801411E053495031E5
:1008E0002068884202D14FF4803009E04F496431DA
:1008F0002068884202D14FF4801001E04FF08070F0
:100900004A4908394860012084F8210000BF0020CE
:1009100084F8200000BF606B10B12046616B8847EF
:10092000284670BD2DE9F04104460E4615464FF0AD
:10093000000894F82100022809D00420A06300BF19
:10094000002084F8200000BF0120BDE8F08120686D
:10095000006810F0200F04D04FF48070A0630120D5
:10096000F3E77EBB31492068884201D1022027E0AD
:100970002E4914312068884201D1202020E02B49E3
:1009800028312068884201D1401519E027493C31BF
:100990002068884202D14FF4005011E023495031C1
:1009A0002068884202D14FF4003009E01F496431C9
:1009B0002068884202D14FF4001001E04FF000702F
:1009C00007462FE0FFE719492068884201D104203B
:1009D00027E0164914312068884201D1402020E0E8
:1009E000124928312068884201D1001519E00F49C9
:1009F0003C312068884202D14FF4804011E00B491D
:100A000050312068884202D14FF4802009E0074924
:100A100064312068884202D14FF4800001E04FF039
:100A200080600746FFF724FC80465FE00800024034
:100A3000F8480068F74A08322168914201D108213C
:100A400027E0F44A1C322168914201D1802120E044
:100A5000F04A30322168914201D1C91419E0ED4ABF
:100A600044322168914202D14FF4004111E0E94A39
:100A700058322168914202D14FF4002109E0E54A41
:100A80006C322168914202D14FF4000101E04FF035
:100A90000061084213D094F8401001208840E16BB7
:100AA0004860A06B40F00100A063012084F82100A1
:100AB00000BF002084F8200000BF012045E7681C2B
:100AC00014D02DB1FFF7D4FBA0EB0800A8420DD93C
:100AD000A06B40F02000A063012084F8210000BF3B
:100AE000002084F8200000BF01202EE7C9480068DC
:100AF00038429DD0A6BBC74908312068884201D141
:100B0000022027E0C3491C312068884201D12020FF
:100B100020E0C04930312068884201D1401519E0F9
:100B2000BC4944312068884202D14FF4005011E0A2
:100B3000B84958312068884202D14FF4003009E0AA
:100B4000B4496C312068884202D14FF4001001E0B2
:100B50004FF00070AF494860012084F8210031E077
:100B6000FFE7AC4908312068884201D1042027E022
:100B7000A8491C312068884201D1402020E0A549C5
:100B800030312068884201D1001519E0A149443173
:100B90002068884202D14FF4804011E09D495831CD
:100BA0002068884202D14FF4802009E099496C31D5
:100BB0002068884202D14FF4800001E04FF080604D
:100BC0009449486000BF002084F8200000BF00BFA7
:100BD000BBE670B50446E06B05682068066894F8CB
:100BE000401004208840284245D016F0040F42D01F
:100BF0002068006810F0200F05D12068006820F000
:100C0000040021680860834908312068884201D1C6
:100C1000042027E07F491C312068884201D1402010
:100C200020E07C4930312068884201D1001519E06C
:100C3000784944312068884202D14FF4804011E065
:100C4000744958312068884202D14FF4802009E06D
:100C500070496C312068884202D14FF4800001E075
:100C60004FF080606B494860E06A002879D02046E8
:100C7000E16A884775E094F84010022088402842D5
:100C80004CD016F0020F49D02068006810F0200FF9
:100C900008D12068006820F00A002168086001205F
:100CA00084F821005B4908312068884201D1022084
:100CB00027E058491C312068884201D1202020E0DB
:100CC000544930312068884201D1401519E051491A
:100CD00044312068884202D14FF4005011E04D4960
:100CE00058312068884202D14FF4003009E0494968
:100CF0006C312068884202D14FF4001001E04FF0BF
:100D000000704449486000BF002084F8200000BF04
:100D1000A06A30B32046A16A884722E094F84010C8
:100D20000820884028421CD016F0080F19D02068EF
:100D3000006820F00E002168086094F8401001203F
:100D40008840E16B48600120A06384F8210000BF67
:100D5000002084F8200000BF206B10B12046216BDA
:100D6000884770BD10B50346002400BF93F82000EB
:100D7000012801D1022010BD012083F8200000BF0E
:100D800093F82100012812D131B1012906D002299E
:100D900006D0032908D105E09A6207E0DA6205E08F
:100DA0001A6303E05A6301E0012400BF00E001245C
:100DB00000BF002083F8200000BF2046DBE710B50D
:100DC0000246002400BF92F82000012801D1022031
:100DD00010BD012082F8200000BF92F821000128F8
:100DE0001DD1052918D2DFE801F00306090C0F0018
:100DF0000020906212E00020D0620FE0002010631B
:100E00000CE00020506309E000209062D062106383
:100E1000506303E000000240012400BF00E0012411
:100E200000BF002082F8200000BF2046D0E7014626
:100E300091F8210070470146886B70472DE9F8470B
:100E400003460024002000258446002700226EE18E
:100E50004FF0010808FA02F4D1F8008008EA040013
:100E6000A0427DD1DFF860A4D1F80480A8EB0A0984
:100E7000D0453AD014DCB8F1030F50D009DCB8F1FA
:100E8000000F31D0B8F1010F1CD0B8F1020F49D1D9
:100E900020E0B8F1110F18D0B8F1120F42D11EE0C6
:100EA000B9F5881F25D006DCB9F5803F20D0B9F50B
:100EB000801F37D11AE0B9F5001F18D0B9F5041F0B
:100EC00030D117E0D1F80CC02DE0D1F80C8008F13A
:100ED000040C28E0D1F80C8008F1080C23E0D1F8CC
:100EE0000C8008F10C0C1EE000BF00BF00BF00BF6B
:100EF00000BF00BFD1F80880B8F1000F02D14FF059
:100F0000040C0BE0D1F80880B8F1010F03D14FF0C9
:100F1000080C1C6102E04FF0080C5C6103E04FF02C
:100F2000000C00E000BF00BFFF2801D8984601E098
:100F300003F104084646FF2802D84FEA820803E07E
:100F4000A2F108084FEA88084746D6F800804FF01B
:100F50000F0909FA07F928EA09080CFA07F900E06D
:100F600088E048EA0908C6F80080D1F8048008F053
:100F70008058B8F1805F7DD100BFDFF85083D8F88A
:100F8000188048F00108DFF84493C9F81880C84673
:100F9000D8F8188008F00108CDF8008000BF00BF25
:100FA0004FEAB9384FEA920958F829504FEA827847
:100FB0004FEA18794FF00F0808FA09F825EA0805F2
:100FC000DFF80C83434502D14FF0000816E0DFF84C
:100FD0000483434502D14FF001080FE0DFF8F882A7
:100FE000434502D14FF0020808E0DFF8F0824345A4
:100FF00002D14FF0030801E04FF004084FEA827974
:101000004FEA197908FA09F848EA0505DFF8D082AD
:101010004FEA920948F82950D1F8048008F4803842
:10102000B8F5803F0AD1DFF8BC82D8F8008048EAE2
:101030000008DFF8B092C9F8008009E0DFF8A48268
:10104000D8F8008028EA0008DFF89892C9F80080F4
:10105000D1F8048008F40038B8F5003F10D1DFF86B
:10106000848208F10408D8F8008048EA0008DFF814
:10107000749200E05AE009F10409C9F800800DE01B
:10108000DFF8608208F10408D8F8008028EA000838
:10109000DFF8509209F10409C9F80080D1F8048002
:1010A00008F48018B8F5801F0ED1DFF8388208F1F7
:1010B0000808D8F8008048EA0008DFF8289209F10B
:1010C0000809C9F800800DE0DFF8188208F1080867
:1010D000D8F8008028EA0008DFF8089209F108092A
:1010E000C9F80080D1F8048008F40018B8F5001F92
:1010F0000ED1DFF8F08108F10C08D8F8008048EA3A
:101100000008DFF8E09109F10C09C9F800800DE052
:10111000DFF8D08108F10C08D8F8008028EA000830
:10112000DFF8C09109F10C09C9F80080521C102A9F
:10113000FFF48EAEBDE8F8872DE9F04102460B467C
:1011400000200021002400267FE00127874007EAD5
:101150000301002978D0FF2901D8174600E0171DA8
:101160003D46FF2901D8870002E0A0F10807BF0033
:101170003E462F684FF00F0C0CFA06FC27EA0C07CE
:101180004FF0040C0CFA06FC47EA0C072F60D768F6
:101190008F43D760524F4FEA900C57F82C40870787
:1011A0004FEA177C0F2707FA0CF73C40484FBA422A
:1011B00001D100270FE0474FBA4201D101270AE0D1
:1011C000454FBA4201D1022705E0444FBA4201D14E
:1011D000032700E004274FEA807C4FEA1C7C07FAD3
:1011E0000CF7A74230D187074FEA177C0F2707FA81
:1011F0000CF43B4F4FEA900C57F82C70A743DFF8E4
:10120000E0C04FEA90084CF82870364F3F688F4393
:10121000DFF8D0C0CCF800700CF104073F688F43B2
:101220000CF1040CCCF800700CF104073F688F43FC
:101230000CF1040CCCF800700CF104073F688F43EC
:101240000CF1040CCCF80070401C33FA00F77FF46A
:101250007CAFBDE8F081024693680B4201D00120CB
:1012600000E0002070470AB1016101E00B04036156
:101270007047C2684A40C260704708B502464FF4E2
:101280008030009000980843009000989061916130
:101290000098906190690090906910F4803F01D0AF
:1012A000002008BD0120FCE7704710B504460D483A
:1012B00014300068204205D00A48143004602046EB
:1012C00002F076F810BD000000001110001002407E
:1012D00000080140000C01400010014000140140D2
:1012E000080001400004014010B5FEF7C1FF0446AC
:1012F000F748006840F00100F549086006E0FEF795
:10130000B7FF001B022801D9032010BDF048006878
:1013100010F0020FF3D0EE48006820F0F80040F023
:101320008000EB490860FEF7A3FF04460020E8496F
:10133000486008E0FEF79CFF001B41F288318842BC
:1013400001D90320E1E7E248406810F00C0FF1D129
:10135000E048E14908600020FEF741FF08B10120A4
:10136000D3E7FEF785FF0446D948006820F0807077
:10137000D749086006E0FEF77BFF001B022801D971
:101380000320C2E7D248006810F0007FF3D10020AC
:10139000CF494860FEF76CFF0446CD48006820F452
:1013A0001020CB49086006E0FEF762FF001B6428AE
:1013B00001D90320A9E7C648006810F4003FF3D123
:1013C000C348006820F48020C14908600846406A8C
:1013D00040F0807048620020886000BF95E708B543
:1013E000BD490968C9084FF47A72B1FBF2F1414373
:1013F000009100BF00BF00994A1E00920029F9D158
:1014000008BDF8B504460025207810F0010F75D00E
:10141000AF48406800F00C0004280CD0AC4840688D
:1014200000F00C00082810D1A948406800F4803072
:10143000B0F5803F09D1A648006810F4003F5DD0A8
:10144000606800285AD10120F8BD00BF6068B0F57F
:10145000803F06D19E48006840F480309C49086077
:1014600028E0606858B99A48006820F480309849AC
:1014700008600846006820F4802008601AE0606870
:10148000B0F5A02F0BD19248006840F4802090491D
:1014900008600846006840F4803008600AE08C4824
:1014A000006820F480308A4908600846006820F40B
:1014B0008020086000BF606880B1FEF7D9FE054655
:1014C00006E0FEF7D5FE401B642801D90320BBE7E8
:1014D0007F48006810F4003FF3D00FE0FEF7C8FE2D
:1014E000054606E0FEF7C4FE401B642801D9032030
:1014F000AAE77748006810F4003FF3D1207800F0A5
:101500000200022855D17248406810F00C0F0AD032
:101510006F48406800F00C00082818D16C484068FB
:1015200010F4803F13D16A48006810F0020F04D015
:101530002069012801D0012086E76548006820F075
:10154000F800616940EAC1006149086031E0206942
:10155000E0B1012061490860FEF78AFE054606E019
:10156000FEF786FE401B022801D903206CE758488D
:10157000006810F0020FF3D05548006820F0F80022
:10158000616940EAC1005249086012E000205349F5
:101590000860FEF76DFE054606E0FEF769FE401B9B
:1015A000022801D903204FE74948006810F0020FD4
:1015B000F3D1207800F0080008282BD1A069B0B141
:1015C000012047490860FEF753FE054606E0FEF796
:1015D0004FFE401B022801D9032035E73C48406AF2
:1015E00010F0020FF3D00120FFF7F9FE12E0002007
:1015F0003B490860FEF73CFE054606E0FEF738FE74
:10160000401B022801D903201EE73148406A10F030
:10161000020FF3D1207800F00400042857D10026EF
:101620002B48C06910F0805F0ED100BF2848C06908
:1016300040F080502649C8610846C06900F08050DB
:10164000009000BF00BF01262648006810F4807F8C
:1016500015D12448006840F4807022490860FEF7E4
:1016600007FE054606E0FEF703FE401B642801D98D
:101670000320E9E61B48006810F4807FF3D000BF28
:10168000E068012806D11248006A40F001001049C4
:10169000086234E0E06858B90D48006A20F00100A3
:1016A0000B4908620846006A20F00400086226E040
:1016B000E068052818D10648006A40F00400044993
:1016C00008620846006A40F00100086217E047E03F
:1016D0000010024000127A00140000200000424274
:1016E0008004424200700040FC48006A20F0010083
:1016F000FA4908620846006A20F00400086200BF48
:10170000E06890B1FEF7B4FD054608E0FEF7B0FDD5
:10171000401B41F28831884201D9032094E6EF480A
:10172000006A10F0020FF1D011E0FEF7A1FD0546AE
:1017300008E0FEF79DFD401B41F28831884201D947
:10174000032081E6E548006A10F0020FF1D1012E76
:1017500005D1E248C06920F08050E049C86100BF6F
:10176000E069C0B3DD48406800F00C00082854D0A0
:10177000E06902283DD10020D9490866FEF778FDCE
:10178000054606E0FEF774FD401B022801D9032040
:101790005AE6D248006810F0007FF3D1206AB0F515
:1017A000803F07D1CD48406820F40030A16808434D
:1017B000CA494860D4E908010843C849496821F486
:1017C00074110843C54948600120C5490866FEF701
:1017D0004FFD054607E022E0FEF74AFD401B0228C8
:1017E00001D9032030E6BD48006810F0007FF3D037
:1017F00015E00020BA490866FEF73AFD054606E006
:10180000FEF736FD401B022801D903201CE6B34831
:10181000006810F0007FF3D101E0012014E6002001
:1018200012E6F0B585B00FF2BC2C9CE8E01001A8E0
:10183000A0E8E010AFA52D6800950021002200234C
:1018400000240020A54D696811F00C051ED0042D60
:1018500002D0082D19D101E0A74819E001ADC1F36C
:101860008346AC5D11F4803F0AD09C4D6D68C5F392
:1018700040451DF80520A04D6543B5FBF2F302E09D
:101880009E4D04FB05F3184602E000BF9A4800BFD6
:1018900000BF05B0F0BD70B504460D46002698485F
:1018A000006800F00700A8420ED29548006820F0BA
:1018B00007002843924908600846006800F00700C6
:1018C000A84201D0012070BD207800F0020002285B
:1018D00007D18248406820F0F000A16808437F49A2
:1018E0004860207810F0010F5CD06068012806D1B4
:1018F0007A48006810F4003F12D10120E3E76068E5
:10190000022806D17548006810F0007F08D1012038
:10191000D9E77248006810F0020F01D10120D2E728
:101920006E48406820F00300616808436B494860D6
:10193000FEF79EFC06466068012810D108E0FEF71D
:1019400097FC801B41F28831884201D90320BAE715
:101950006248406800F00C000428F0D122E0606882
:10196000022810D108E0FEF783FC801B41F2883189
:10197000884201D90320A6E75848406800F00C00CF
:101980000828F0D10EE008E0FEF772FC801B41F25F
:101990008831884201D9032095E75048406810F00B
:1019A0000C0FF1D15648006800F00700A8420ED98C
:1019B0005348006820F00700284351490860084652
:1019C000006800F00700A84201D001207BE72078E2
:1019D00000F00400042807D14048406820F4E0608B
:1019E000E16808433D494860207800F00800082875
:1019F00008D13A48406820F46050216940EAC100AB
:101A000036494860FFF70DFF34494968C1F30311B7
:101A10003C4A515CC8403C4908600020FEF7DFFBAF
:101A2000002050E770B586B005460C4616460020EB
:101A300002900390049005900220039003200590EB
:101A4000002004904FF48070029000BF234880690A
:101A500040F00400214988610846806900F00400D4
:101A6000019000BF00BF02A92848FFF7E7F91B4813
:101A7000406820F0E06020431849486006B070BD1F
:101A800001201749C864704700201549C864704791
:101A90001D480068704700B5FFF7FAFF0F49496815
:101AA000C1F302211A4A515CC84000BD00B5FFF7DE
:101AB000EFFF0A494968C1F3C221154A515CC84089
:101AC00000BD0F2101600549096801F48021B1F5CD
:101AD000802F1FD14FF4A021416028E00010024068
:101AE0000000424202030405060708090A0B0C0D18
:101AF0000E0F10100102000000127A0000093D00D4
:101B000000200240273C000814000020000801408B
:101B1000373C00083F49096801F48031B1F5803F46
:101B200003D14FF48031416001E000214160394927
:101B3000496801F4003181603649096811F0010FEC
:101B400002D00121016101E00021016131490968F0
:101B5000C1F3C40141612F49096A01F0040104295C
:101B600002D10521C16009E02A49096A11F0010F7B
:101B700002D00121C16001E00021C1602549496A0C
:101B800011F0010F02D00121816101E0002181618A
:101B90002049096801F08071B1F1807F02D10221F2
:101BA000C16101E00121C1611A49496801F4803233
:101BB00002621849496801F47012426270470F22AC
:101BC0000260144A526802F003024260114A5268ED
:101BD00002F0F00282600F4A526802F4E062C260D2
:101BE0000C4A526802F46052D20802610A4A126832
:101BF00002F007020A607047704710B50548806818
:101C000000F08000802804D1FFF7F6FF8020014912
:101C1000887210BD00100240002002402DE9F04102
:101C2000044600252068006920F44050E16808431C
:101C3000216808612169A068084361690843054378
:101C40002068C06841F20C61884328432168C8605D
:101C50002068406920F44070A16908432168486108
:101C6000FE49206888425CD1FFF720FF00EBC001ED
:101C700001EB001061688900B0FBF1F6FFF716FF79
:101C800000EBC00101EB001061688900B0FBF1F0CE
:101C90006421B0FBF1F000EBC00101EB0010A6EBFA
:101CA0008000322101EB00106421B0FBF1F000F064
:101CB000F006FFF7FBFE00EBC00101EB00106168CE
:101CC0008900B0FBF1F06421B0FBF1F006EB0016E7
:101CD000FFF7ECFE00EBC00101EB0010616889002A
:101CE000B0FBF1F7FFF7E2FE00EBC00101EB0010E3
:101CF00061688900B0FBF1F06421B0FBF1F000EB0A
:101D0000C00101EB0010A7EB8000322101EB0010B5
:101D10006421B0FBF1F000F00F00304421688860CE
:101D20005BE0FFF7B8FE00EBC00101EB001061685B
:101D30008900B0FBF1F6FFF7AEFE00EBC00101EB4E
:101D4000001061688900B0FBF1F06421B0FBF1F094
:101D500000EBC00101EB0010A6EB8000322101EB8B
:101D600000106421B0FBF1F000F0F006FFF793FEE5
:101D700000EBC00101EB001061688900B0FBF1F0DD
:101D80006421B0FBF1F006EB0016FFF784FE00EBD8
:101D9000C00101EB001061688900B0FBF1F7FFF7AB
:101DA0007AFE00EBC00101EB001061688900B0FB16
:101DB000F1F06421B0FBF1F000EBC00101EB001089
:101DC000A7EB8000322101EB00106421B0FBF1F0A1
:101DD00000F00F00304421688860BDE8F081704752
:101DE00010B504460CB9012010BDA06900B100E097
:101DF00000BF94F8390028B9002084F83800204644
:101E000001F0B4FB242084F839002068C06820F475
:101E100000502168C8602046FFF700FF2068006975
:101E200020F49040216808612068406920F02A0071
:101E3000216848612068C06840F400502168C8608B
:101E40000020E063202084F8390084F83A00002064
:101E5000CAE710B504460CB9012010BD94F839004A
:101E600028B9002084F83800204601F07FFB2420A8
:101E700084F839002068C06820F400502168C860E8
:101E80002046FFF7CBFE2068006920F490402168CF
:101E900008612068406920F02200216848612068BC
:101EA000406940F00800216848612068C06840F43B
:101EB00000502168C8600020E063202084F83900C9
:101EC00084F83A000020C8E770B504460D460CB906
:101ED000012070BD94F8390028B9002084F838003A
:101EE000204601F043FB242084F839002068C068B4
:101EF00020F400502168C8602046FFF78FFE20685C
:101F0000006920F40060216808612068406920F0C1
:101F10002A00216848612068006940F480402168F7
:101F200008612068006920F02000284321680861CA
:101F30002068C06840F400502168C8600020E06359
:101F4000202084F8390084F83A000020C1E770B5F9
:101F500004460D4616460CB9012070BD94F83900B0
:101F600028B9002084F83800204601F0FFFA242028
:101F700084F839002068C06820F400502168C860E7
:101F80002046FFF74BFE2068006920F4904021684E
:101F900008612068406920F02A00216848612068B3
:101FA000006920F00F002843216808612068C0689C
:101FB00020F4006030432168C8602068C06840F4A5
:101FC00000502168C8600020E063202084F83900B8
:101FD00084F83A000020C0E7704710B504460CB9F9
:101FE000012010BD242084F83900204601F0E9FAD0
:101FF0000020E06384F8390084F83A0000BF84F8D8
:10200000380000BF00BFECE72DE9F04104460D4663
:1020100017469846069E23E0701C21D02EB1FEF78D
:1020200027F9A0EB0800B0421AD92068C06820F454
:10203000D0702168C8602068406920F001002168E4
:102040004861202084F8390084F83A0000BF00205D
:1020500084F8380000BF0320BDE8F081003801405B
:10206000206800682840A84201D1012000E000203B
:10207000B842D1D00020EFE72DE9F84304460D46E1
:1020800016461F464FF0000994F8390020285CD10D
:1020900005B116B90120BDE8F88300BF94F83800F7
:1020A000012801D10220F6E7012084F8380000BFA2
:1020B0000020E063212084F83900FEF7D9F881463A
:1020C000A684E6842BE0E08C401EE084A068B0F596
:1020D000805F16D14B460022802120460097FFF7F3
:1020E00093FF08B10320D6E7A846B8F80000C0F374
:1020F000080021684860206908B9AD1C0FE06D1C1C
:102100000DE04B460022802120460097FFF77CFF20
:1021100008B10320BFE715F8010B21684860E08C87
:102120000028D0D14B460022402120460097FFF7DF
:102130006BFF08B10320AEE7202084F8390000BF10
:10214000002084F8380000BFA5E70220A3E72DE9AE
:10215000F84304460D4616461F464FF0000994F812
:102160003A00202860D105B116B90120BDE8F883F6
:1021700000BF94F83800012801D10220F6E70120C1
:1021800084F8380000BF0020E063222084F83A0081
:10219000FEF76EF88146A685E68539E0E08D401EA3
:1021A000E085A068B0F5805F1BD14B46002220215E
:1021B00020460097FFF728FF08B10320D6E7A8467E
:1021C000206938B920684068C0F30800A8F800000A
:1021D000AD1C1DE020684068C0B2A8F800006D1C6E
:1021E00016E04B460022202120460097FFF70CFF07
:1021F00008B10320BAE7206920B92068406805F8D3
:10220000010B05E02068406800F07F0005F8010B35
:10221000E08D0028C2D1202084F83A0000BF0020C1
:1022200084F8380000BFA1E702209FE710B50346FD
:1022300093F83900202823D101B10AB9012010BD3B
:1022400000BF93F83800012801D10220F7E70120F0
:1022500083F8380000BF19629A84DA840020D863BA
:10226000212083F8390000BF002083F8380000BF28
:102270001868C06840F080001C68E0600020DEE75D
:102280000220DCE710B5034693F83A0020282FD14E
:1022900001B10AB9012010BD00BF93F83800012830
:1022A00001D10220F7E7012083F8380000BF9962CE
:1022B0009A85DA850020D863222083F83A0000BF8F
:1022C000002083F8380000BF1868C06840F48070B0
:1022D0001C68E0601868406940F001001C6860619B
:1022E0001868C06840F020001C68E0600020D2E759
:1022F0000220D0E770470168C96821F49071026834
:10230000D1600168496921F0010102685161202111
:1023100080F83A1070470168C96821F0C00102686E
:10232000D160202180F83910704770B5064600252D
:10233000746A20684069C0F3C01594F839002128F8
:1023400005D125B10020E0842046FFF7E4FF206896
:102350004069C0F3801594F83A00222805D125B1D0
:102360000020E0852046FFF7C6FFE06B40F010003C
:10237000E0632046FFF7BEFF70BD704770B50446AE
:10238000656A2846FFF7F9FF70BD704770B50546CE
:102390006C6A2868006810F0200F0ED10020E084DD
:1023A0002068406920F08000216848612068C0688A
:1023B00040F040002168C86002E02046FFF7E5FFDA
:1023C00070BDF7B50446154694F8390020283DD174
:1023D000019800B10DB90120FEBD00BF94F838008E
:1023E000012801D10220F7E7012084F8380000BF5E
:1023F00001982062A584E5840020E063212084F810
:102400003900FA48216B8862F948216BC862F948A3
:10241000216B08630020216B486301AE23681A1DFD
:1024200031682B46206BFEF7BCF96FF04000216845
:10243000086000BF002084F8380000BF20684069B1
:1024400040F08000216848610020C5E70220C3E712
:10245000704770B50446656A2846FFF7F9FF70BDFE
:10246000704770B505466C6A2868006810F0200F48
:1024700016D10020E0852068C06820F480702168B3
:10248000C8602068406920F0010021684861206828
:10249000406920F0400021684861202084F83A001B
:1024A0002046FFF7DDFF70BD77B581B004461546C5
:1024B00094F83A00202850D1029800B115B90120B3
:1024C00004B070BD00BF94F83800012801D102208B
:1024D000F6E7012084F8380000BF0298A062A585C5
:1024E0000020E063222084F83A00C348616B8862D0
:1024F000C248616BC862BF48616B08630020616BB2
:10250000486302AE32682368191D2B46606BFEF7E4
:1025100048F900BF00200090206800680090206803
:102520004068009000BF00BF00BF002084F8380062
:1025300000BF2068C06840F480702168C8602068CF
:10254000406940F00100216848612068406940F01E
:102550004000216848610020B2E70220B0E7014650
:10256000002200BF91F83800012801D102207047F5
:10257000012081F8380000BF08684069C0F3C0122C
:1025800091F83900212806D12AB10868406920F065
:1025900080000B68586108684069C0F3801291F8A8
:1025A0003A00222812D18AB10868C06820F48070ED
:1025B0000B68D8600868406920F001000B6858611A
:1025C0000868406920F040000B68586100BF002097
:1025D00081F8380000BF00BFC9E708B5014600BF59
:1025E00091F83800012801D1022008BD012081F8AE
:1025F000380000BF91F83900212805D108684069EA
:1026000040F080000A68506191F83A0022281CD1FD
:1026100000BF0020009008680068009008684068CB
:10262000009000BF00BF0868C06840F480700A686E
:10263000D0600868406940F001000A68506108688D
:10264000406940F040000A68506100BF002081F8F6
:10265000380000BF00BFC8E770B5044600252068F9
:102660004069C0F3C01594F8390021280ED16DB12E
:102670002068406920F0800021684861206B10B11B
:10268000206BFEF7DCF82046FFF745FE2068406926
:10269000C0F3801594F83A0022280ED16DB120685D
:1026A000406920F0400021684861606B10B1606BA8
:1026B000FEF7C5F82046FFF71EFE002070BD10B5DE
:1026C00004462068C06820F4F0702168C860206863
:1026D000406920F00100216848612068406910F0DD
:1026E000800F0DD02068406920F08000216848618B
:1026F000206B28B10020216B4863206BFEF79FF808
:102700002068406910F0400F0DD02068406920F02B
:10271000400021684861606B28B10020616B48630C
:10272000606BFEF78CF80020E084E085E0632020F9
:1027300084F83A0084F83900002010BD10B5044632
:102740002068C06820F0C0002168C8602068406927
:1027500010F0800F0DD02068406920F080002168C3
:102760004861206B28B10020216B4863206BFEF785
:1027700066F80020E084202084F83900002010BD95
:1027800010B504462068C06820F490702168C860C5
:102790002068406920F00100216848612068406994
:1027A00010F0400F0DD02068406920F040002168F3
:1027B0004861606B28B10020616B4863606BFEF775
:1027C0003EF80020E085202084F83A00002010BD6B
:1027D000704770B505466C6A0020616B4863206BDA
:1027E00070B1206B406B58B170BD00008D230008A4
:1027F0007D2300082B2300086324000853240008CD
:102800000020E084E085E063202084F8390084F82B
:102810003A002046FFF7DCFF00BFE5E770B505464C
:102820006C6A0020216B4863606B18B1606B406B71
:1028300000B170BD0020E084E085E063202084F8D2
:10284000390084F83A002046FFF7C2FF00BFF0E7E6
:1028500070B5044601252068C06820F4F070216836
:10286000C8602068406920F0010021684861206B41
:1028700058B12068406910F0800F03D0FC48216BEC
:10288000486302E00020216B4863606B58B1206808
:10289000406910F0400F03D0F648616B486302E0D6
:1028A0000020616B48632068406910F0800F10D0F1
:1028B0002068406920F0800021684861206B40B1A9
:1028C000206BFDF7D9FF18B10020216B486300E0B1
:1028D00000252068406910F0400F11D02068406941
:1028E00020F0400021684861606B48B1606BFDF7E3
:1028F000C3FF20B10020616B4863012500E0002583
:10290000012D0BD10020E084E085E063202084F8D5
:10291000390084F83A002046FFF75AFF002070BDC6
:10292000704770B505466C6A0020E084202084F86A
:1029300039002046FFF7F4FF70BD10B5044620684B
:10294000C06820F0C0002168C8602068406910F0AD
:10295000800F1BD02068406920F08000216848610A
:10296000206B50B1C448216B4863206BFDF784FF96
:10297000A0B1206B416B884710E00020E08420204C
:1029800084F839002046FFF7CBFF07E00020E08401
:10299000202084F839002046FFF7C2FF002010BD38
:1029A000704770B505466C6A0020E085202084F8E9
:1029B0003A002046FFF7F4FF70BD10B504462068CA
:1029C000C06820F490702168C8602068406920F0D9
:1029D0000100216848612068406910F0400F1BD059
:1029E0002068406920F0400021684861606B50B168
:1029F000A248616B4863606BFDF73EFFA0B1606B5E
:102A0000416B884710E00020E085202084F83A00E0
:102A10002046FFF7C5FF07E00020E085202084F86E
:102A20003A002046FFF7BCFF002010BD10B5044659
:102A30002068C06820F040002168C860202084F829
:102A400039002046FFF7A1FC002010BD014691F897
:102A5000390021282DD18868B0F5805F0FD10A6A2E
:102A60001088C0F308000B685860086918B9086A34
:102A7000801C086209E0086A401C086205E00B6AD5
:102A8000581C086218780B685860C88C401E0004F7
:102A9000000CC8840BD10868C06820F080000B6867
:102AA000D8600868C06840F040000B68D86000201B
:102AB00070470220FCE770B505466C6A0020E0858F
:102AC000E0842046FFF716FC70BD70B5044694F80C
:102AD0003A0022284BD1A068B0F5805F13D1A56AD7
:102AE000206940B920684068C0F308002880A06AC7
:102AF000801CA06219E020684068C0B22880A06AEB
:102B0000401CA06211E0206938B920684068C1B259
:102B1000A26A501CA062117007E02068406800F0B3
:102B20007F01A26A501CA0621170E08D401E00045B
:102B3000000CE08519D12068C06820F020002168D1
:102B4000C8602068C06820F480702168C860206870
:102B5000406920F0010021684861202084F83A0093
:102B60002046FFF77DFC002070BD0020FCE702201E
:102B7000FAE72DE9F0470446206805682068C66832
:102B8000206847694FF00008C14605F00F08B8F10A
:102B9000000F0AD115F0200F07D016F0200F04D037
:102BA0002046FFF792FFBDE8F087B8F1000F77D01D
:102BB00017F0010F02D116F4907F71D015F0010FBC
:102BC00006D016F4807F03D0E06B40F00100E06394
:102BD00015F0040F06D017F0010F03D0E06B40F0A2
:102BE0000200E06315F0020F06D017F0010F03D0CA
:102BF000E06B40F00400E06315F0080F06D017F01A
:102C0000010F03D0E06B40F00800E063E06B68B3B5
:102C100015F0200F05D016F0200F02D02046FFF748
:102C200054FF20684069C0F38019E06B10F0080F72
:102C300002D1B9F1000F2DD02046FFF75CFB2068D0
:102C4000406910F0400F21D02068406920F040001A
:102C500021684861606BA8B10948616B4863606B8B
:102C6000FDF70AFE10B1606B416B884717E017E073
:102C70001D280008D327000823290008A3290008DD
:102C8000B72A00082046FFF735FB08E02046FFF78B
:102C900031FB04E02046FFF72DFB0020E06382E7D4
:102CA00015F0800F06D016F0800F03D02046FFF7F6
:102CB000CDFE78E715F0400F06D016F0400F03D098
:102CC0002046FFF7B3FE6EE700BF6CE7014600BF8A
:102CD00091F83800012801D102207047012081F8C5
:102CE000380000BF242081F839000868C06840F02F
:102CF00001000A68D060202081F8390000BF002060
:102D000081F8380000BF00BFE7E7014600BF91F837
:102D10003800012801D102207047012081F83800D5
:102D200000BF242081F839000868C06840F0020024
:102D30000A68D060202081F8390000BF002081F8A7
:102D4000380000BF00BFE7E7014600BF91F8380038
:102D5000012801D102207047012081F8380000BF0E
:102D6000242081F839000868C06820F002000A6851
:102D7000D060202081F8390000BF002081F83800A1
:102D800000BF00BFE7E70146002200BF91F838000E
:102D9000012801D102207047012081F8380000BFCE
:102DA000242081F839000868C26822F00C0242F041
:102DB00008020868C260202081F8390000BF0020A6
:102DC00081F8380000BF00BFE5E70146002200BFE0
:102DD00091F83800012801D102207047012081F8C4
:102DE000380000BF242081F839000868C26822F04A
:102DF0000C0242F004020868C260202081F8390009
:102E000000BF002081F8380000BF00BFE5E70146A1
:102E10000022002391F8392091F83A3042EA030069
:102E200070470146C86B7047014600BF704713B535
:102E30000C464FF6FF7301226946CD48FFF71CF997
:102E400000981CBD08B5612000904FF6FF73012269
:102E50006946C748FFF710F9C6A000F065FCCBA093
:102E600000F062FCCBA000F05FFCD2A000F05CFCA4
:102E7000C5A000F059FCD6A000F056FCDDA000F083
:102E800053FCE5A000F050FCBFA000F04DFCEBA00F
:102E900000F04AFCF1A000F047FCF94800F044FCC7
:102EA000F8A000F041FC08BD00BFFEE710B5F948EE
:102EB000AF490860F84848600021AD488160C160B2
:102EC00001610C21416100218161C161FEF788FF30
:102ED00020B14FF4BF71F1A0FFF7E6FF10BD00B5C0
:102EE00085B000BFF148806940F01000EF4988616B
:102EF0000846806900F01000009000BF00BF00BFCE
:102F00000846806940F0200088610846806900F02A
:102F10002000009000BF00BF00BF0846806940F05D
:102F2000040088610846806900F00400009000BF3A
:102F300000BF00BF0846806940F00800886108466D
:102F4000806900F00800009000BF00BF00224FF42D
:102F50000051D748FEF787F94FF400500190012047
:102F600002900220049001A9D148FDF767FF4FF4B9
:102F700080700190CF4802900020039001A9CE48B4
:102F8000FDF75CFF4FF400700190CC4802900020E8
:102F9000039001A9C848FDF751FF002211461720F0
:102FA000FDF718FA1720FDF753FA05B000BD10B56C
:102FB00090B00120069000040790002008900120A6
:102FC0000A9002200D90C1030E914FF4E0110F9171
:102FD00006A8FEF716FA20B140F25311AFA0FFF792
:102FE00063FF0F20019002200290002003904FF415
:102FF0008060049000200590022101A8FEF74BFCA0
:1030000020B140F26111A5A0FFF74EFFFEF740FD91
:103010004FF47A71B0FBF1F42046FDF745FA042035
:10302000FDF7E2FA00221146501EFDF7D3F910B069
:1030300010BD08B5002400260027A046A1460025A3
:10304000A246FDF7ECF8FFF7B2FFFFF748FFFFF7E6
:103050002DFFFFF7F7FEFDF70BF9009000219848D0
:1030600000F0B3FCA3E19748008897490988401A0B
:1030700041F65831084490FBF1F201FB120001289F
:103080005CDB924890490988405C412811D190A0AE
:1030900000F04AFB8C480088401C41F6583190FBF8
:1030A000F1F201FB1200884908800924002601255D
:1030B00044E0864884490988405C422814D187A0AE
:1030C00000F032FB80480088401C41F6583190FBEC
:1030D000F1F201FB12007C490880002C02DD082C73
:1030E00000DA0024002629E0601E04B25CB97748AB
:1030F00075490988405C08B9012000E000200746B6
:103100004FF001090FE0012C06D12DB16F486E4937
:10311000098810F8018006E06C486B490988405C1A
:1031200040EA4600C6B268480088401C41F6583163
:1031300090FBF1F201FB120063490880B9F1000F26
:1031400013D025B1314669A000F0EEFA03E0314614
:1031500069A000F0E9FA6BA000F0E6FA25B1B8F139
:10316000000F03D05221D2E0D6E0F0E0CEE0000024
:10317000701B00200D0A202A2A2049324320536E5A
:103180006966666572202A2A0D0A00004B65793A45
:10319000200D0A001B5B33326D4C656674205B1B8F
:1031A0005B33376D3A2028726529535441525420BD
:1031B0000D0A00001B5B33316D5269676874205D36
:1031C0001B5B33376D3A092053544F50200D0A00D2
:1031D0001B5B33366D4379616E1B5B33376D3A2071
:1031E00041646472657373202868657829200D0A2C
:1031F000000000001B5B33336D521B5B33376D3AAD
:1032000009526561642066726F6D206D617374652B
:1032100072200D0A000000001B5B33336D571B5BEF
:1032200033376D3A20205772697465202020746FFF
:1032300020736C617665200D0A0000001B5B33373C
:103240006D57686974651B5B33376D3A2044617450
:1032500061202868657829200D0A00001B5B333344
:103260006D411B5B33376D3A0941434B2028616345
:103270006B6E6F776C656467656429200D0A0000CA
:10328000E03B00080D0A20456E6A6F7921200D0A87
:103290000D0A000000380140C0C62D002E2E5C53E0
:1032A00072635C6D61696E2E630000000010024065
:1032B0000010014000001110000C0140000031100E
:1032C000100000200C0000200E000020180000203C
:1032D0001B5B33326D5B1B5B33376D001B5B333124
:1032E0006D5D1B5B33376D0D0A0000001B5B3336D1
:1032F0006D253278000000001B5B33376D25327876
:10330000000000001B5B33336D00000057210846AE
:10331000434900F058FB00250FB1412100E04E2148
:1033200008463F4900F04FFB4FF0000900260924F2
:10333000FCF79EFF00903BA000F0F6F9BAF1000FF9
:1033400005D0AFF2BC1000F0EFF94FF0000AFCF727
:103350008FFF0099401A40F2DC51884227D933A0F0
:1033600000F0E2F9C4F1090231463DA000F0DCF9B9
:103370004FF480714248FDF76EFF08B141A000E0B4
:1033800042A08346594643A000F0CEF94FF40071A5
:103390003B48FDF760FF08B13AA000E03BA0834640
:1033A000594641A000F0C0F90120824681465AE604
:1033B00070B50546B5F5807F06D14FF400713048F1
:1033C000FDF749FF044611E04FF480712C48FDF7EA
:1033D00042FF50B14FF400712948FDF73CFF08B19E
:1033E000422000E04120044600E070BD33483449EB
:1033F0000988445432480088401C41F6583190FBFB
:10340000F1F201FB12002E490880084600882D4980
:103410000988884202D12CA000F086F900BFE4E7B9
:10342000100000201B5B33376D0000000D0A4E6F4B
:10343000206461746120666F756E64202854494D64
:10344000454F5554292C2064756D70696E6720694D
:103450006E666F726D6174696F6E2E2E2E0D0A008E
:10346000526563656976656420646174613A2030F1
:103470007825582C20256420626974730D0A000099
:10348000000C01401B5B33326D4849001B5B33313C
:103490006D4C4F0053434C206C696E653A20257388
:1034A0001B5B33376D0D0A00534441206C696E6518
:1034B0003A2025731B5B33376D0D0A00180000207E
:1034C0000C0000200E0000204552524F522120498E
:1034D00032432062756666657220746F6F20736D6B
:1034E000616C6C210D0A000008B500BF3E48806980
:1034F00040F001003C4988610846806900F0010005
:10350000009000BF00BF0320FCF752FF00221146CD
:103510006FF00B00FCF75EFF002211466FF00A000F
:10352000FCF758FF002211466FF00900FCF752FF2C
:1035300000221146501FFCF74DFF00221146101FBC
:10354000FCF748FF00221146901EFCF743FF0022C3
:103550001146501EFCF73EFF00BF2449486820F08A
:10356000E06040F00070486000BF08BD10B586B054
:1035700004461F492068884221D100BF1A4880694B
:1035800040F48040184988610846806900F4804012
:10359000019000BF00BF4815029002200390032055
:1035A000059002A91348FDF749FC4FF48060029092
:1035B00000200390049002A90E48FDF73FFC06B0DE
:1035C00010BD10B504460A49206888420AD1064851
:1035D000806920F48040044988614FF4C061054847
:1035E000FDF7AAFD10BD00000010024000000140E0
:1035F0000038014000080140704700BFFEE700BFEF
:10360000FEE700BFFEE700BFFEE770477047704768
:1036100010B5FCF725FEFCF7FCFF10BD10B54FF40C
:103620008070FDF742FE4FF40070FDF73EFE10BDC6
:103630003448006840F0010032490860084640689C
:10364000314908402F494860084600682F49084022
:103650002C4908600846006820F48020086008466D
:10366000406820F4FE0048604FF41F008860C803E3
:1036700027490860704710B5002100200022214B27
:103680005B6803F00C0121B1042906D0082928D178
:1036900007E0204B204C236027E01E4B1E4C23608C
:1036A00023E0184B5B6803F47010164B5B6803F45F
:1036B0008032022303EB904022B9184B4343164C4F
:1036C00023600DE00F4B5B6813F4003F04D0134BF5
:1036D0004343114C236003E00E4B43430E4C2360E5
:1036E00003E00C4B0C4C236000BF00BF054B5B6834
:1036F000C3F303130A4CE15C074B1B68CB40064C39
:10370000236010BD001002400000FFF8FFFFF6FE2E
:1037100008ED00E000127A001400002000093D00CE
:10372000273C0008704700000FB4044910B503AAF5
:10373000029800F0CBF910BC5DF814FB10000020DB
:1037400070B5044685690068C10601D5302600E0E1
:103750002026C00708D070BDD4E90121304690472B
:10376000206A00F1010020626D1EF5D570BD70B5B4
:10377000044685690078C00708D170BDD4E90121ED
:1037800020209047206A00F1010020626D1EF5D5CF
:1037900070BD70B50C460546012A05D02878800614
:1037A00000D5EA69002302E0012305E05B1C934297
:1037B00002D2E05C0028F9D1A869E618C01AA86115
:1037C000286A184428622846FFF7BAFF04E0D5E9C2
:1037D000012114F8010B9047B442F8D32846FFF7B3
:1037E000C6FF70BD2DE9F04106460024106875291A
:1037F000314616A511D0AFF30080002803DAC0F1DE
:10380000000013A507E031688A0701D511A502E081
:10381000490704D510A5012401E0AFF30080002181
:103820000A2306F1240707E0B0FBF3F203FB1200C2
:10383000303078541046491C0028F5D123462A46DA
:103840003046BDE8F04100F0CEB8000000000000B6
:103850002D0000002B0000002000000070B5044681
:103860000D4621461068AFF300802188090502D576
:10387000104A7A4402E00F4A7A440E32002104F1E1
:10388000240307E000F00F064FEA1010965D5E5427
:1038900001F101010028F5D103462078000704D585
:1038A000702D02D009B1113202232046BDE87040CC
:1038B00000F099B8C90300002DE9F0474FF0000A65
:1038C00089460446C0F820A02046E16888470028C1
:1038D00076D0252806D0D4E901219047206A401CE3
:1038E0002062F1E7E168204600258847C4F81CA063
:1038F00006460027C4F818A02A2E09D0304600F04A
:1039000067F938B304EB8708303EC8F8186019E04F
:1039100059F8041B204604EB87029161E16888474F
:10392000012F064618D1E069002820DA25F020058D
:103930001DE0D8F8180000EB800006EB400030389E
:10394000C8F818002046E1688847064600F040F9AC
:103950000028EED1012F0AD02E2E08D12046E16892
:1039600088477F1C0646022F45F02005C4DBA0696E
:10397000002803DA404245F00105A061E80701D0C4
:1039800025F01005B6B1A6F14100192802D820365D
:1039900045F400654A463146204625604D46FCF711
:1039A000DFFB58B1012806D0ED1D25F0070000F11E
:1039B000080989E704E005F1040985E730468AE74C
:1039C000206ABDE8F087FFF732BA11B14FF4807278
:1039D00001E04FF480624FF4007300F089B8704743
:1039E0007047704770472DE9F0470D46994692465B
:1039F000044600F124080168880604D5E06921F036
:103A00001001216000E00120A84202DDA0EB0507C3
:103A100000E00027A16907EB050202EB0900A1EB1A
:103A20000000A0612078C00602D42046FFF788FE7F
:103A3000002608E0D4E901211AF806009047206A20
:103A4000401C761C20624E45F4DB2078C0060AD567
:103A50002046FFF775FE06E0D4E9012130209047AB
:103A6000206A401C2062381EA7F10107F4DC07E041
:103A7000D4E9012118F805009047206A401C206213
:103A8000281EA5F10105F3DC2046FFF770FE207823
:103A9000000602D50220BDE8F0870120FBE710B543
:103AA000436913B1AFF3008001E0FFF772FE01201C
:103AB00010BD127800F124010A7000224A70012220
:103AC000EDE711684FF0FF32E9E70000074B70B5F2
:103AD0000D467B4400F035F80446284600F044F8D3
:103AE00010B14FF0FF3070BD204670BD59F3FFFF9D
:103AF00070B5C468A50713D0650211D4B2F5807FF4
:103B000009D0B2F5007F06D0B2F5806F08D101234D
:103B100000F1240106E05D1E6FF07F46B54201D33F
:103B2000012070BD0161C361416024F470611143E3
:103B3000C160002070BD000001694A1C0261087864
:103B4000704700B58FB0CDE90131002105910549DD
:103B50007944CDE9031011466846FFF7ADFE0FB07A
:103B600000BD0000E5FFFFFF007B00F08000704714
:103B7000754600F029F8AE4605006946534620F028
:103B80000700854618B020B5FCF716FBBDE82040BD
:103B90004FF000064FF000074FF000084FF0000B09
:103BA00021F00701AC46ACE8C009ACE8C009ACE8BC
:103BB000C009ACE8C0098D4670470446AFF30080E9
:103BC0002046FCF7E5FA000000487047B01B0020D3
:103BD00030380A2801D201207047002070470000C9
:103BE0001B5B33336D4E1B5B33376D3A20204E41E8
:103BF000434B20286E6F742061636B6E6F776C652A
:103C000064676564202D2D206E6F74653A2074689A
:103C10006973206973206E6F7420616E2065727203
:103C20006F7229200D0A0000000000000000000152
:103C30000203040607080900000000010203043023
:103C400031323334353637383941424344454640C2
:103C500030580030313233343536373839616263A9
:103C60006465664030780000883C00080000002051
:103C70001800000028010008A03C000818000020DF
:103C8000F8210000440100081000000001000000BD
:103C900000000000000000000000000000A24A0434
:04000005080000ED02
:00000001FF
